{"abi":[{"type":"constructor","inputs":[],"stateMutability":"nonpayable"},{"type":"function","name":"GUARDIAN_SET_EXPIRATION_TIME","inputs":[],"outputs":[{"name":"","type":"uint32","internalType":"uint32"}],"stateMutability":"view"},{"type":"function","name":"MESSAGE_FEE","inputs":[],"outputs":[{"name":"","type":"uint256","internalType":"uint256"}],"stateMutability":"view"},{"type":"function","name":"QUORUM","inputs":[],"outputs":[{"name":"","type":"uint8","internalType":"uint8"}],"stateMutability":"view"},{"type":"function","name":"TOTAL_GUARDIANS","inputs":[],"outputs":[{"name":"","type":"uint8","internalType":"uint8"}],"stateMutability":"view"},{"type":"function","name":"consumedVAAs","inputs":[{"name":"","type":"bytes32","internalType":"bytes32"}],"outputs":[{"name":"","type":"bool","internalType":"bool"}],"stateMutability":"view"},{"type":"function","name":"currentGuardianSetIndex","inputs":[],"outputs":[{"name":"","type":"uint32","internalType":"uint32"}],"stateMutability":"view"},{"type":"function","name":"getCurrentGuardianSetIndex","inputs":[],"outputs":[{"name":"","type":"uint32","internalType":"uint32"}],"stateMutability":"view"},{"type":"function","name":"getGuardianSet","inputs":[{"name":"index","type":"uint32","internalType":"uint32"}],"outputs":[{"name":"","type":"tuple","internalType":"struct IBridgeCore.GuardianSet","components":[{"name":"keys","type":"address[]","internalType":"address[]"},{"name":"expirationTime","type":"uint32","internalType":"uint32"}]}],"stateMutability":"view"},{"type":"function","name":"governance","inputs":[],"outputs":[{"name":"","type":"address","internalType":"address"}],"stateMutability":"view"},{"type":"function","name":"guardianSets","inputs":[{"name":"","type":"uint32","internalType":"uint32"}],"outputs":[{"name":"expirationTime","type":"uint32","internalType":"uint32"}],"stateMutability":"view"},{"type":"function","name":"initialize","inputs":[{"name":"initialGuardians","type":"address[]","internalType":"address[]"},{"name":"_governance","type":"address","internalType":"address"}],"outputs":[],"stateMutability":"nonpayable"},{"type":"function","name":"isVAAConsumed","inputs":[{"name":"vaaHash","type":"bytes32","internalType":"bytes32"}],"outputs":[{"name":"","type":"bool","internalType":"bool"}],"stateMutability":"view"},{"type":"function","name":"messageFee","inputs":[],"outputs":[{"name":"","type":"uint256","internalType":"uint256"}],"stateMutability":"pure"},{"type":"function","name":"nextSequence","inputs":[],"outputs":[{"name":"","type":"uint64","internalType":"uint64"}],"stateMutability":"view"},{"type":"function","name":"paused","inputs":[],"outputs":[{"name":"","type":"bool","internalType":"bool"}],"stateMutability":"view"},{"type":"function","name":"publishMessage","inputs":[{"name":"nonce","type":"uint32","internalType":"uint32"},{"name":"payload","type":"bytes","internalType":"bytes"},{"name":"consistencyLevel","type":"uint8","internalType":"uint8"}],"outputs":[{"name":"sequence","type":"uint64","internalType":"uint64"}],"stateMutability":"payable"},{"type":"function","name":"receiveMessage","inputs":[{"name":"encodedVAA","type":"bytes","internalType":"bytes"}],"outputs":[{"name":"","type":"bool","internalType":"bool"}],"stateMutability":"nonpayable"},{"type":"function","name":"sequences","inputs":[{"name":"","type":"address","internalType":"address"}],"outputs":[{"name":"","type":"uint64","internalType":"uint64"}],"stateMutability":"view"},{"type":"function","name":"setPaused","inputs":[{"name":"_paused","type":"bool","internalType":"bool"}],"outputs":[],"stateMutability":"nonpayable"},{"type":"function","name":"updateGuardianSet","inputs":[{"name":"vaa","type":"bytes","internalType":"bytes"}],"outputs":[],"stateMutability":"nonpayable"},{"type":"event","name":"GuardianSetUpdated","inputs":[{"name":"oldIndex","type":"uint32","indexed":true,"internalType":"uint32"},{"name":"newIndex","type":"uint32","indexed":true,"internalType":"uint32"}],"anonymous":false},{"type":"event","name":"LogMessagePublished","inputs":[{"name":"sender","type":"address","indexed":true,"internalType":"address"},{"name":"sequence","type":"uint64","indexed":false,"internalType":"uint64"},{"name":"nonce","type":"uint32","indexed":false,"internalType":"uint32"},{"name":"payload","type":"bytes","indexed":false,"internalType":"bytes"},{"name":"consistencyLevel","type":"uint8","indexed":false,"internalType":"uint8"}],"anonymous":false},{"type":"event","name":"MessageReceived","inputs":[{"name":"vaaHash","type":"bytes32","indexed":true,"internalType":"bytes32"},{"name":"sourceChain","type":"uint16","indexed":false,"internalType":"uint16"},{"name":"sequence","type":"uint64","indexed":false,"internalType":"uint64"}],"anonymous":false},{"type":"error","name":"BridgePaused","inputs":[]},{"type":"error","name":"InsufficientFee","inputs":[]},{"type":"error","name":"InsufficientSignatures","inputs":[]},{"type":"error","name":"InvalidGuardianSet","inputs":[]},{"type":"error","name":"InvalidSignature","inputs":[]},{"type":"error","name":"InvalidVAA","inputs":[]},{"type":"error","name":"Unauthorized","inputs":[]},{"type":"error","name":"VAAAlreadyConsumed","inputs":[]}],"bytecode":{"object":"0x60808060405234610027575f80546001600160a01b031916331790556110cd908161002c8239f35b5f80fdfe60806040526004361015610011575f80fd5b5f3560e01c80631516d3c01461014557806316c38b3c146101405780631a90a219146100ff5780631cfe7951146101365780632e80d9b61461013b57806338528f53146101365780633870cd1214610131578063462d0b2e1461012c5780634fc608a3146101275780635aa6e675146101225780635c975abb1461011d578063728b57f11461011857806380eb32391461010e578063a1449af514610113578063a31fe4091461010e578063b19a437e14610109578063b9a51a8e14610104578063f28355c8146100ff578063f951975a146100fa5763f953cec7146100f5575f80fd5b61077c565b6106b4565b6102af565b610634565b610519565b6104cf565b6104fe565b6104b2565b61048e565b610467565b610422565b610386565b610323565b6102d0565b6102f5565b610264565b610231565b634e487b7160e01b5f52604160045260245ffd5b604081019081106001600160401b0382111761017957604052565b61014a565b90601f801991011681019081106001600160401b0382111761017957604052565b6001600160401b03811161017957601f01601f191660200190565b81601f82011215610200578035906101d18261019f565b926101df604051948561017e565b8284526020838301011161020057815f926020809301838601378301015290565b5f80fd5b602060031982011261020057600435906001600160401b0382116102005761022e916004016101ba565b90565b346102005761023f36610204565b505f546001600160a01b0316330361025357005b6040516282b42960e81b8152600490fd5b3461020057602036600319011261020057600435801515809103610200575f54906001600160a01b03821633036102535760ff60a01b1990911660a09190911b60ff60a01b16175f55005b34610200575f36600319011261020057602060405166038d7ea4c680008152f35b34610200575f36600319011261020057602063ffffffff5f5460a81c16604051908152f35b34610200575f366003190112610200576020604051600d8152f35b6004359063ffffffff8216820361020057565b3461020057602036600319011261020057602063ffffffff80610344610310565b165f5260028252600160405f20015416604051908152f35b602435906001600160a01b038216820361020057565b35906001600160a01b038216820361020057565b34610200576040366003190112610200576001600160401b036004358181116102005736602382011215610200578060040135918211610179578160051b90604051916020936103d88583018561017e565b83526024848401918301019136831161020057602401905b82821061040b576104098461040361035c565b90610b46565b005b84809161041784610372565b8152019101906103f0565b34610200576020366003190112610200576004356001600160a01b03811690819003610200575f52600360205260206001600160401b0360405f205416604051908152f35b34610200575f366003190112610200575f546040516001600160a01b039091168152602090f35b34610200575f36600319011261020057602060ff5f5460a01c166040519015158152f35b34610200575f36600319011261020057602060405162093a808152f35b34610200576020366003190112610200576004355f526004602052602060ff60405f2054166040519015158152f35b34610200575f36600319011261020057602060405160138152f35b60603660031901126102005761052d610310565b6024356001600160401b0381116102005761054c9036906004016101ba565b6044359160ff831683036102005766038d7ea4c6800034106106235760ff5f5460a01c16610611577f6eb224fb001ed210e379b335e35efe88672a8ce935d981a6896b27ffdf52a3b261060d93335f52600360205260405f20936105de6105ba86546001600160401b031690565b956105c487610c9b565b6001600160401b03166001600160401b0319825416179055565b6105f060405192839233968885610cb3565b0390a26040516001600160401b0390911681529081906020820190565b0390f35b60405163a792dfa360e01b8152600490fd5b60405162976f7560e21b8152600490fd5b34610200575f3660031901126102005760206001600160401b0360015416604051908152f35b602080825282516040838301528051606084018190526080840194918301905f5b8181106106975750505060409163ffffffff9101511691015290565b82516001600160a01b03168752958401959184019160010161067b565b3461020057602080600319360112610200578063ffffffff6106d4610310565b6040516106e08161015e565b606081525f93849101521681526002825260408120604051916107028361015e565b6040518091858454928381520191848252868220915b81811061075f5761060d876107538a61074760018b8b61073a818d038261017e565b8652015463ffffffff1690565b63ffffffff1690830152565b6040519182918261065a565b82546001600160a01b031684529287019260019283019201610718565b346102005761078a36610204565b80519060209182820120905f9282845260049081815260409460ff8682205416610b07576006845110610af7576001908160ff6107e06107da6107cc89610d38565b516001600160f81b03191690565b60f81c90565b1603610ae75761080d6108016107fb6107da6107cc89610d4a565b60ff1690565b60181b63ff0000001690565b61082e6108226107fb6107da6107cc8a610d5a565b60101b63ffff00001690565b176108506108446107fb6107da6107cc8a610d6a565b60081b63ffffff001690565b176108636107fb6107da6107cc89610d7a565b17926108746107da6107cc88610d8a565b9260ff841694600d8610610ad75761089a9063ffffffff165f52600260205260405f2090565b93845415610abd5763ffffffff6108b78387015463ffffffff1690565b168015159081610acd575b50610abd57816108ef6108ea6108d88b51610dab565b6108e46107fb86610dc7565b90610dba565b610ddc565b9185825b610a6e575b505050828151910120895161092681610918868201948560209181520190565b03601f19810183528261017e565b519020835b8681106109a7578a8a7f526f6db5c9f2d804d38baf075b847ee7f17ab65f066409390d145da4ddf052e26109808c61097b61096e855f52600460205260405f2090565b805460ff19166001179055565b610eea565b845161ffff9290921682526001600160401b03166020820152604090a25160018152602090f35b8884868d6109cc6107da6107cc6109c56109c089610b2b565b610e1c565b8097610d9a565b938d0160218101516041820151606190920151925188815292841a60208401526040830152606082015280608081018380520390875afa15610a6957610a3b610a2f610a1a8851938a610eb2565b905460039190911b1c6001600160a01b031690565b6001600160a01b031690565b6001600160a01b0390911603610a5957610a5490610e0e565b61092b565b8a51638baa579f60e01b81528890fd5b610ea7565b8351811015610ab85780610aa06107cc8d610a9a610ab295610a956109c06107fb8a610dc7565b610e9a565b90610d9a565b881a610aac8287610d9a565b53610e0e565b826108f3565b6108f8565b8951631e866ea960e11b81528790fd5b905042115f6108c2565b8951633724e34360e11b81528790fd5b865163f9a6d57f60e01b81528490fd5b855163f9a6d57f60e01b81528390fd5b8551635a28942560e11b81528390fd5b634e487b7160e01b5f52601160045260245ffd5b90604282029180830460421490151715610b4157565b610b17565b5f808052602090600282526040812054610c605760405192610b678461015e565b83528183019181835281805260028152604082209351918251926001600160401b038411610179576801000000000000000084116101795782908654858855808610610c38575b500191610bbe865f5260205f2090565b915b848110610c1d575050505050610c1b92916001610be4610bfb935163ffffffff1690565b91019063ffffffff1663ffffffff19825416179055565b60018060a01b03166bffffffffffffffffffffffff60a01b5f5416175f55565b565b83516001600160a01b03168382015592810192600101610bc0565b8784528583852091820191015b818110610c525750610bae565b848155859350600101610c45565b60405162461bcd60e51b8152600481018390526013602482015272105b1c9958591e481a5b9a5d1a585b1a5e9959606a1b6044820152606490fd5b6001600160401b03809116908114610b415760010190565b94939291906001600160401b0316855263ffffffff6020911681860152608060408601528151918260808701525f5b838110610d105750505090606060a0835f82610c1b9689010152601f801991011686010194019060ff169052565b81810183015187820160a001528201610ce2565b634e487b7160e01b5f52603260045260245ffd5b805115610d455760200190565b610d24565b805160011015610d455760210190565b805160021015610d455760220190565b805160031015610d455760230190565b805160041015610d455760240190565b805160051015610d455760250190565b908151811015610d45570160200190565b600519810191908211610b4157565b91908203918211610b4157565b60ff60429116029060ff8216918203610b4157565b90610de68261019f565b610df3604051918261017e565b8281528092610e04601f199161019f565b0190602036910137565b5f198114610b415760010190565b6006019081600611610b4157565b9060018201809211610b4157565b9060228201809211610b4157565b9060028201809211610b4157565b9060038201809211610b4157565b9060048201809211610b4157565b9060058201809211610b4157565b9060068201809211610b4157565b9060078201809211610b4157565b91908201809211610b4157565b6040513d5f823e3d90fd5b8054821015610d45575f5260205f2001905f90565b60ff166006019060ff8211610b4157565b60ff60089116019060ff8211610b4157565b90610f156107fb610f10610f0b610f066107da6107cc88610d8a565b610dc7565b610ec7565b610ed8565b916110936107fb6107da6107cc610f67610f45610f3b6107fb6107da6107cc8c8b610d9a565b60081b61ff001690565b610f606107fb6107da6107cc610f5a8d610e2a565b8b610d9a565b1797610e38565b94610a9a610f91610f816107fb6107da6107cc8b87610d9a565b60381b67ff000000000000001690565b610fbf610faf6107fb6107da6107cc610fa98d610e2a565b88610d9a565b60301b67ffff0000000000001690565b17610fe8610fd86107fb6107da6107cc610fa98d610e46565b60281b67ffffff00000000001690565b176110116110016107fb6107da6107cc610fa98d610e54565b60201b67ffffffff000000001690565b1761103a61102a6107fb6107da6107cc610fa98d610e62565b60181b67ffffffffff0000001690565b176110636110536107fb6107da6107cc610fa98d610e70565b60101b67ffffffffffff00001690565b1761108c61107c6107fb6107da6107cc610fa98d610e7e565b60081b67ffffffffffffff001690565b1796610e8c565b179056fea26469706673582212209c5b361c8d4ca229e5ccd1929bd5fc207400cd1d6c724ad41774141515d9002a64736f6c63430008140033","linkReferences":{}},"methodIdentifiers":{"GUARDIAN_SET_EXPIRATION_TIME()":"728b57f1","MESSAGE_FEE()":"f28355c8","QUORUM()":"2e80d9b6","TOTAL_GUARDIANS()":"a1449af5","consumedVAAs(bytes32)":"a31fe409","currentGuardianSetIndex()":"38528f53","getCurrentGuardianSetIndex()":"1cfe7951","getGuardianSet(uint32)":"f951975a","governance()":"5aa6e675","guardianSets(uint32)":"3870cd12","initialize(address[],address)":"462d0b2e","isVAAConsumed(bytes32)":"80eb3239","messageFee()":"1a90a219","nextSequence()":"b9a51a8e","paused()":"5c975abb","publishMessage(uint32,bytes,uint8)":"b19a437e","receiveMessage(bytes)":"f953cec7","sequences(address)":"4fc608a3","setPaused(bool)":"16c38b3c","updateGuardianSet(bytes)":"1516d3c0"},"id":30}