{"abi":[{"type":"constructor","inputs":[{"name":"_bridgeCore","type":"address","internalType":"address"}],"stateMutability":"nonpayable"},{"type":"function","name":"bridgeCore","inputs":[],"outputs":[{"name":"","type":"address","internalType":"contract IBridgeCore"}],"stateMutability":"view"},{"type":"function","name":"dailyTransferred","inputs":[{"name":"","type":"address","internalType":"address"}],"outputs":[{"name":"","type":"uint256","internalType":"uint256"}],"stateMutability":"view"},{"type":"function","name":"governance","inputs":[],"outputs":[{"name":"","type":"address","internalType":"address"}],"stateMutability":"view"},{"type":"function","name":"lastResetTime","inputs":[{"name":"","type":"address","internalType":"address"}],"outputs":[{"name":"","type":"uint256","internalType":"uint256"}],"stateMutability":"view"},{"type":"function","name":"lockTokens","inputs":[{"name":"token","type":"address","internalType":"address"},{"name":"amount","type":"uint256","internalType":"uint256"},{"name":"targetChainId","type":"uint16","internalType":"uint16"},{"name":"recipient","type":"bytes32","internalType":"bytes32"}],"outputs":[{"name":"transferId","type":"bytes32","internalType":"bytes32"}],"stateMutability":"payable"},{"type":"function","name":"lockedBalances","inputs":[{"name":"","type":"address","internalType":"address"}],"outputs":[{"name":"","type":"uint256","internalType":"uint256"}],"stateMutability":"view"},{"type":"function","name":"maxDailyTransfer","inputs":[],"outputs":[{"name":"","type":"uint256","internalType":"uint256"}],"stateMutability":"view"},{"type":"function","name":"maxSingleTransfer","inputs":[],"outputs":[{"name":"","type":"uint256","internalType":"uint256"}],"stateMutability":"view"},{"type":"function","name":"setRateLimit","inputs":[{"name":"maxPerTransaction","type":"uint256","internalType":"uint256"},{"name":"maxPerDay","type":"uint256","internalType":"uint256"}],"outputs":[],"stateMutability":"nonpayable"},{"type":"function","name":"unlockTokens","inputs":[{"name":"vaa","type":"bytes","internalType":"bytes"}],"outputs":[{"name":"","type":"bool","internalType":"bool"}],"stateMutability":"nonpayable"},{"type":"function","name":"withdrawFees","inputs":[{"name":"recipient","type":"address","internalType":"address"},{"name":"amount","type":"uint256","internalType":"uint256"}],"outputs":[],"stateMutability":"nonpayable"},{"type":"event","name":"RateLimitUpdated","inputs":[{"name":"maxPerTransaction","type":"uint256","indexed":false,"internalType":"uint256"},{"name":"maxPerDay","type":"uint256","indexed":false,"internalType":"uint256"},{"name":"timestamp","type":"uint256","indexed":false,"internalType":"uint256"}],"anonymous":false},{"type":"event","name":"TokensLocked","inputs":[{"name":"transferId","type":"bytes32","indexed":true,"internalType":"bytes32"},{"name":"token","type":"address","indexed":true,"internalType":"address"},{"name":"sender","type":"address","indexed":true,"internalType":"address"},{"name":"amount","type":"uint256","indexed":false,"internalType":"uint256"},{"name":"targetChain","type":"uint16","indexed":false,"internalType":"uint16"},{"name":"recipient","type":"bytes32","indexed":false,"internalType":"bytes32"}],"anonymous":false},{"type":"event","name":"TokensUnlocked","inputs":[{"name":"transferId","type":"bytes32","indexed":true,"internalType":"bytes32"},{"name":"token","type":"address","indexed":true,"internalType":"address"},{"name":"recipient","type":"address","indexed":true,"internalType":"address"},{"name":"amount","type":"uint256","indexed":false,"internalType":"uint256"}],"anonymous":false},{"type":"error","name":"AddressEmptyCode","inputs":[{"name":"target","type":"address","internalType":"address"}]},{"type":"error","name":"AddressInsufficientBalance","inputs":[{"name":"account","type":"address","internalType":"address"}]},{"type":"error","name":"BridgePaused","inputs":[]},{"type":"error","name":"ExceedsRateLimit","inputs":[]},{"type":"error","name":"FailedInnerCall","inputs":[]},{"type":"error","name":"InsufficientBalance","inputs":[]},{"type":"error","name":"InvalidChainId","inputs":[]},{"type":"error","name":"InvalidRecipient","inputs":[]},{"type":"error","name":"InvalidToken","inputs":[]},{"type":"error","name":"ReentrancyGuardReentrantCall","inputs":[]},{"type":"error","name":"SafeERC20FailedOperation","inputs":[{"name":"token","type":"address","internalType":"address"}]},{"type":"error","name":"TransferFailed","inputs":[]},{"type":"error","name":"Unauthorized","inputs":[]}],"bytecode":{"object":"0x60a0346100a257601f610fd738819003918201601f19168301916001600160401b038311848410176100a6578084926020946040528339810103126100a257516001600160a01b038116908190036100a25760015f5564e8d4a510006002556509184e72a0006003556080523360018060a01b03196001541617600155604051610f1c90816100bb823960805181818161014d015281816101d201526109c50152f35b5f80fd5b634e487b7160e01b5f52604160045260245ffdfe60806040526004361015610011575f80fd5b5f3560e01c80630483a7f6146100c457806336b089d8146100bf578063376c30eb146100ba5780633d114978146100b55780635aa6e675146100b05780637780f6c8146100ab57806379036e90146100a657806386c2fbcf146100a1578063ad3b1b471461009c578063b53f5227146100975763d21b5f5b14610092575f80fd5b610728565b6106bc565b610628565b6105a1565b610512565b6104da565b6104b2565b61017c565b610138565b61011b565b6100e3565b600435906001600160a01b03821682036100df57565b5f80fd5b346100df5760203660031901126100df576001600160a01b036101046100c9565b165f526004602052602060405f2054604051908152f35b346100df575f3660031901126100df576020600254604051908152f35b346100df575f3660031901126100df576040517f00000000000000000000000000000000000000000000000000000000000000006001600160a01b03168152602090f35b60803660031901126100df576101906100c9565b6024356044359061ffff90818316938484036100df57606435936101b261097e565b60408051635c975abb60e01b815260209791956004926001600160a01b037f00000000000000000000000000000000000000000000000000000000000000008116939091908b818781885afa908115610436575f91610485575b5061047557801590811561046b575b5061045b57881561044b57600254871161043b5761032b93928a9261026f6102f6936102478b8b610c56565b8916986102568b30338d610815565b6001600160a01b03165f90815260046020526040902090565b61027a8a825461077c565b90558951600160f81b858201908152600181018b9052602181018a90524690921660f090811b6001600160f01b03199081166041850152604384018e90529089901b1660638301525f606583015260c08a901b6001600160c01b0319166085830152600160c01b608d83018190526095830152928391609d0190565b039361030a601f199586810185528461055e565b89518096819482936358cd21bf60e11b845263ffffffff42169084016107ec565b039134905af1908115610436576103f9987fedd6fc2c667b5709e6681f809781fd55ef90d52506eb2e0a571f896b8b5fbaa0935f936103fd575b508751469181019182523060601b6bffffffffffffffffffffffff1916602083015260c09390931b6001600160c01b031916603482015291906103b49082603c85015b0390810183528261055e565b5190209586926103df875192839233988461ffff604092959493606083019683521660208201520152565b0390a46103eb60015f55565b519081529081906020820190565b0390f35b819350916104266103a8936103b4933d871161042f575b61041e818361055e565b81019061078e565b93915091610365565b503d610414565b61075d565b8751630a33995b60e11b81528490fd5b8751634e46966960e11b81528490fd5b8751633d23e4d160e11b81528490fd5b905046145f61021b565b885163a792dfa360e01b81528590fd5b6104a591508c8d3d106104ab575b61049d818361055e565b810190610745565b5f61020c565b503d610493565b346100df575f3660031901126100df576001546040516001600160a01b039091168152602090f35b346100df5760203660031901126100df576001600160a01b036104fb6100c9565b165f526006602052602060405f2054604051908152f35b346100df5760203660031901126100df576001600160a01b036105336100c9565b165f526005602052602060405f2054604051908152f35b634e487b7160e01b5f52604160045260245ffd5b90601f8019910116810190811067ffffffffffffffff82111761058057604052565b61054a565b67ffffffffffffffff811161058057601f01601f191660200190565b346100df5760203660031901126100df5760043567ffffffffffffffff81116100df57366023820112156100df578060040135906105de82610585565b6105eb604051918261055e565b82815236602484840101116100df575f6020846103f99560246106169601838601378301015261099f565b60405190151581529081906020820190565b346100df5760403660031901126100df576106416100c9565b60015460243591906001600160a01b031633036106ab574791806106a55750815b8211610693575f808093819382908215610689575b6001600160a01b031690f11561043657005b6108fc9150610677565b604051631e9acf1760e31b8152600490fd5b91610662565b6040516282b42960e81b8152600490fd5b346100df5760403660031901126100df5760015460043590602435906001600160a01b031633036106ab57816060917fb08dc25d6f70fb9b42325a265866d58941c3c44ce9a15af6977c63f048c03edc93600255806003556040519182526020820152426040820152a1005b346100df575f3660031901126100df576020600354604051908152f35b908160209103126100df575180151581036100df5790565b6040513d5f823e3d90fd5b634e487b7160e01b5f52601160045260245ffd5b9190820180921161078957565b610768565b908160209103126100df575167ffffffffffffffff811681036100df5790565b91908251928382525f5b8481106107d8575050825f602080949584010152601f8019910116010190565b6020818301810151848301820152016107b8565b929161081060409163ffffffff60c8941686526060602087015260608601906107ae565b930152565b6040516323b872dd60e01b60208201526001600160a01b03928316602482015292909116604483015260648083019390935291815260a081019181831067ffffffffffffffff8411176105805761086e92604052610870565b565b5f806108b89260018060a01b03169360208151910182865af13d15610913573d9061089a82610585565b916108a8604051938461055e565b82523d5f602084013e5b8361091b565b80519081151591826108f1575b50506108ce5750565b604051635274afe760e01b81526001600160a01b03919091166004820152602490fd5b61090c925090602080610908938301019101610745565b1590565b5f806108c5565b6060906108b2565b90610942575080511561093057805190602001fd5b604051630a12f52160e11b8152600490fd5b81511580610975575b610953575090565b604051639996b31560e01b81526001600160a01b039091166004820152602490fd5b50803b1561094b565b60025f541461098d5760025f55565b604051633ee5aeb560e01b8152600490fd5b6109a761097e565b60408051635c975abb60e01b815260209291906001600160a01b03907f00000000000000000000000000000000000000000000000000000000000000008216908581600481855afa908115610436575f91610b7c575b50610b6b57848351809263f953cec760e01b8252815f81610a218a60048301610b99565b03925af1801561043657610a3c915f91610b4e575b50610bad565b610a4583610e0e565b95909186610a638260018060a01b03165f52600460205260405f2090565b5410610b3d576001600160a01b0381165f9081526004602052604090207fa7448960976fee9c7b6f4eb656378b1358580710a65b0da8e25440637b6cbdae949392610b2e929091610ab58a8254610bf9565b9055610b1985821698610ac98b878c610c06565b83815191012092610b0b868a519485938401968791909260489383526bffffffffffffffffffffffff19809260601b16602084015260601b1660348201520190565b03601f19810183528261055e565b51902094519283921696829190602083019252565b0390a460019061086e60015f55565b8451631e9acf1760e31b8152600490fd5b610b659150863d88116104ab5761049d818361055e565b5f610a36565b825163a792dfa360e01b8152600490fd5b610b939150863d88116104ab5761049d818361055e565b5f6109fd565b906020610baa9281815201906107ae565b90565b15610bb457565b60405162461bcd60e51b815260206004820152601760248201527f56414120766572696669636174696f6e206661696c65640000000000000000006044820152606490fd5b9190820391821161078957565b60405163a9059cbb60e01b60208201526001600160a01b039092166024830152604480830193909352918152608081019167ffffffffffffffff8311828410176105805761086e92604052610870565b6001600160a01b0381165f8181526006602052604090205462015180810190811061078957421015610ce6575b506001600160a01b0381165f908152600560205260409020548281018091116107895760035410610cd4576001600160a01b03165f908152600560205260409020610cd09091825461077c565b9055565b604051630a33995b60e11b8152600490fd5b6001600160a01b0382165f908152600560205260408120555f5260066020524260405f20555f610c83565b805160051015610d215760250190565b634e487b7160e01b5f52603260045260245ffd5b805115610d215760200190565b908151811015610d21570160200190565b60ff60429116029060ff821691820361078957565b60ff166006019060ff821161078957565b60ff60339116019060ff821161078957565b90610d9582610585565b610da2604051918261055e565b8281528092610db3601f1991610585565b0190602036910137565b5f1981146107895760010190565b15610dd257565b60405162461bcd60e51b8152602060048201526014602482015273496e76616c6964207061796c6f6164207479706560601b6044820152606490fd5b90610e53610e4d610e48610e43610e3e610e38610e2a88610d11565b516001600160f81b03191690565b60f81c90565b610d53565b610d68565b610d79565b60ff1690565b610e66610e61828551610bf9565b610d8b565b925f91825b8551811015610ea55780610e8e610e2a610e88610ea0948661077c565b86610d42565b851a610e9a8289610d42565b53610dbd565b610e6b565b50505050610ec6600160ff610ebf610e38610e2a87610d35565b1614610dcb565b602182015160418301516063909301516001600160a01b0393841693169156fea26469706673582212207133c84e31daf150bf5ec2bd4388ea00edb72dee5de5161026b257b27c35993564736f6c63430008140033","linkReferences":{}},"methodIdentifiers":{"bridgeCore()":"376c30eb","dailyTransferred(address)":"79036e90","governance()":"5aa6e675","lastResetTime(address)":"7780f6c8","lockTokens(address,uint256,uint16,bytes32)":"3d114978","lockedBalances(address)":"0483a7f6","maxDailyTransfer()":"d21b5f5b","maxSingleTransfer()":"36b089d8","setRateLimit(uint256,uint256)":"b53f5227","unlockTokens(bytes)":"86c2fbcf","withdrawFees(address,uint256)":"ad3b1b47"},"id":32}